{
  "contractName": "Role",
  "abi": [
    {
      "constant": true,
      "inputs": [
        {
          "name": "",
          "type": "uint256"
        }
      ],
      "name": "doctorList",
      "outputs": [
        {
          "name": "",
          "type": "address"
        }
      ],
      "payable": false,
      "stateMutability": "view",
      "type": "function"
    },
    {
      "constant": true,
      "inputs": [
        {
          "name": "",
          "type": "uint256"
        }
      ],
      "name": "patientList",
      "outputs": [
        {
          "name": "",
          "type": "address"
        }
      ],
      "payable": false,
      "stateMutability": "view",
      "type": "function"
    },
    {
      "constant": false,
      "inputs": [
        {
          "name": "_name",
          "type": "string"
        },
        {
          "name": "_age",
          "type": "uint256"
        },
        {
          "name": "_designation",
          "type": "uint256"
        },
        {
          "name": "_password",
          "type": "string"
        }
      ],
      "name": "add_agent",
      "outputs": [],
      "payable": false,
      "stateMutability": "nonpayable",
      "type": "function"
    },
    {
      "constant": true,
      "inputs": [
        {
          "name": "addr",
          "type": "address"
        }
      ],
      "name": "get_patient",
      "outputs": [
        {
          "name": "",
          "type": "string"
        },
        {
          "name": "",
          "type": "uint256"
        },
        {
          "name": "",
          "type": "string"
        },
        {
          "name": "",
          "type": "string[]"
        }
      ],
      "payable": false,
      "stateMutability": "view",
      "type": "function"
    },
    {
      "constant": true,
      "inputs": [
        {
          "name": "addr",
          "type": "address"
        }
      ],
      "name": "get_doctor",
      "outputs": [
        {
          "name": "",
          "type": "string"
        },
        {
          "name": "",
          "type": "uint256"
        },
        {
          "name": "",
          "type": "string"
        }
      ],
      "payable": false,
      "stateMutability": "view",
      "type": "function"
    },
    {
      "constant": true,
      "inputs": [
        {
          "name": "paddr",
          "type": "address"
        },
        {
          "name": "daddr",
          "type": "address"
        }
      ],
      "name": "get_patient_doctor_name",
      "outputs": [
        {
          "name": "",
          "type": "string"
        },
        {
          "name": "",
          "type": "string"
        }
      ],
      "payable": false,
      "stateMutability": "view",
      "type": "function"
    },
    {
      "constant": false,
      "inputs": [
        {
          "name": "addr",
          "type": "address"
        }
      ],
      "name": "permit_access",
      "outputs": [],
      "payable": false,
      "stateMutability": "nonpayable",
      "type": "function"
    },
    {
      "constant": false,
      "inputs": [
        {
          "name": "paddr",
          "type": "address"
        },
        {
          "name": "daddr",
          "type": "address"
        }
      ],
      "name": "remove_patient",
      "outputs": [],
      "payable": false,
      "stateMutability": "nonpayable",
      "type": "function"
    },
    {
      "constant": true,
      "inputs": [
        {
          "name": "addr",
          "type": "address"
        }
      ],
      "name": "get_accessed_doctorlist_for_patient",
      "outputs": [
        {
          "name": "",
          "type": "address[]"
        }
      ],
      "payable": false,
      "stateMutability": "view",
      "type": "function"
    },
    {
      "constant": true,
      "inputs": [
        {
          "name": "addr",
          "type": "address"
        }
      ],
      "name": "get_accessed_patientlist_for_doctor",
      "outputs": [
        {
          "name": "",
          "type": "address[]"
        }
      ],
      "payable": false,
      "stateMutability": "view",
      "type": "function"
    },
    {
      "constant": false,
      "inputs": [
        {
          "name": "daddr",
          "type": "address"
        }
      ],
      "name": "revoke_access",
      "outputs": [],
      "payable": false,
      "stateMutability": "nonpayable",
      "type": "function"
    },
    {
      "constant": true,
      "inputs": [],
      "name": "get_patient_list",
      "outputs": [
        {
          "name": "",
          "type": "address[]"
        }
      ],
      "payable": false,
      "stateMutability": "view",
      "type": "function"
    },
    {
      "constant": true,
      "inputs": [],
      "name": "get_doctor_list",
      "outputs": [
        {
          "name": "",
          "type": "address[]"
        }
      ],
      "payable": false,
      "stateMutability": "view",
      "type": "function"
    },
    {
      "constant": true,
      "inputs": [
        {
          "name": "paddr",
          "type": "address"
        }
      ],
      "name": "get_hash",
      "outputs": [
        {
          "name": "",
          "type": "string[]"
        }
      ],
      "payable": false,
      "stateMutability": "view",
      "type": "function"
    },
    {
      "constant": false,
      "inputs": [
        {
          "name": "_hash",
          "type": "string"
        }
      ],
      "name": "push_hash",
      "outputs": [],
      "payable": false,
      "stateMutability": "nonpayable",
      "type": "function"
    },
    {
      "constant": false,
      "inputs": [
        {
          "name": "paddr",
          "type": "address"
        },
        {
          "name": "rhash",
          "type": "string"
        }
      ],
      "name": "delete_hash",
      "outputs": [],
      "payable": false,
      "stateMutability": "nonpayable",
      "type": "function"
    }
  ],
  "bytecode": "0x608060405234801561001057600080fd5b5061227d806100206000396000f3006080604052600436106100e5576000357c0100000000000000000000000000000000000000000000000000000000900463ffffffff1680627ee3ce146100ea5780630362fe9b14610127578063127ca4b4146101505780631e3fc3b81461018d57806327b1dcee146101cb5780634042d2d4146101f457806356c98c48146102345780637e1519ce14610273578063babb1d41146102b0578063bcffb7ca146102ed578063c39e963514610316578063d05a36bc14610341578063dd44176b1461036a578063e81ac054146103a7578063f02d90a4146103d2578063fd5ac031146103fb575b600080fd5b3480156100f657600080fd5b50610111600480360361010c9190810190611ca5565b610424565b60405161011e9190611fc9565b60405180910390f35b34801561013357600080fd5b5061014e60048036036101499190810190611cce565b6104fa565b005b34801561015c57600080fd5b5061017760048036036101729190810190611e32565b610596565b6040516101849190611fae565b60405180910390f35b34801561019957600080fd5b506101b460048036036101af9190810190611cce565b6105d4565b6040516101c292919061200d565b60405180910390f35b3480156101d757600080fd5b506101f260048036036101ed9190810190611ca5565b61079e565b005b34801561020057600080fd5b5061021b60048036036102169190810190611ca5565b6107ab565b60405161022b9493929190612089565b60405180910390f35b34801561024057600080fd5b5061025b60048036036102569190810190611ca5565b610ae5565b60405161026a93929190612044565b60405180910390f35b34801561027f57600080fd5b5061029a60048036036102959190810190611ca5565b610cf7565b6040516102a79190611feb565b60405180910390f35b3480156102bc57600080fd5b506102d760048036036102d29190810190611e32565b610e22565b6040516102e49190611fae565b60405180910390f35b3480156102f957600080fd5b50610314600480360361030f9190810190611ca5565b610e60565b005b34801561032257600080fd5b5061032b610fb5565b6040516103389190611fc9565b60405180910390f35b34801561034d57600080fd5b5061036860048036036103639190810190611d5e565b611043565b005b34801561037657600080fd5b50610391600480360361038c9190810190611ca5565b6110c8565b60405161039e9190611fc9565b60405180910390f35b3480156103b357600080fd5b506103bc611198565b6040516103c99190611fc9565b60405180910390f35b3480156103de57600080fd5b506103f960048036036103f49190810190611d9f565b611226565b005b34801561040757600080fd5b50610422600480360361041d9190810190611d0a565b61150f565b005b60606000600260008473ffffffffffffffffffffffffffffffffffffffff1673ffffffffffffffffffffffffffffffffffffffff1681526020019081526020016000206003019050808054806020026020016040519081016040528092919081815260200182805480156104ed57602002820191906000526020600020905b8160009054906101000a900473ffffffffffffffffffffffffffffffffffffffff1673ffffffffffffffffffffffffffffffffffffffff16815260200190600101908083116104a3575b5050505050915050919050565b610545600360008373ffffffffffffffffffffffffffffffffffffffff1673ffffffffffffffffffffffffffffffffffffffff1681526020019081526020016000206003018361155f565b50610591600260008473ffffffffffffffffffffffffffffffffffffffff1673ffffffffffffffffffffffffffffffffffffffff1681526020019081526020016000206003018261155f565b505050565b6001818154811015156105a557fe5b906000526020600020016000915054906101000a900473ffffffffffffffffffffffffffffffffffffffff1681565b606080600260008573ffffffffffffffffffffffffffffffffffffffff1673ffffffffffffffffffffffffffffffffffffffff168152602001908152602001600020600001600360008573ffffffffffffffffffffffffffffffffffffffff1673ffffffffffffffffffffffffffffffffffffffff168152602001908152602001600020600001818054600181600116156101000203166002900480601f0160208091040260200160405190810160405280929190818152602001828054600181600116156101000203166002900480156106f05780601f106106c5576101008083540402835291602001916106f0565b820191906000526020600020905b8154815290600101906020018083116106d357829003601f168201915b50505050509150808054600181600116156101000203166002900480601f01602080910402602001604051908101604052809291908181526020018280546001816001161561010002031660029004801561078c5780601f106107615761010080835404028352916020019161078c565b820191906000526020600020905b81548152906001019060200180831161076f57829003601f168201915b50505050509050915091509250929050565b6107a833826104fa565b50565b60606000606080600260008673ffffffffffffffffffffffffffffffffffffffff1673ffffffffffffffffffffffffffffffffffffffff168152602001908152602001600020600001600260008773ffffffffffffffffffffffffffffffffffffffff1673ffffffffffffffffffffffffffffffffffffffff16815260200190815260200160002060010154600260008873ffffffffffffffffffffffffffffffffffffffff1673ffffffffffffffffffffffffffffffffffffffff168152602001908152602001600020600201600260008973ffffffffffffffffffffffffffffffffffffffff1673ffffffffffffffffffffffffffffffffffffffff168152602001908152602001600020600401838054600181600116156101000203166002900480601f0160208091040260200160405190810160405280929190818152602001828054600181600116156101000203166002900480156109505780601f1061092557610100808354040283529160200191610950565b820191906000526020600020905b81548152906001019060200180831161093357829003601f168201915b50505050509350818054600181600116156101000203166002900480601f0160208091040260200160405190810160405280929190818152602001828054600181600116156101000203166002900480156109ec5780601f106109c1576101008083540402835291602001916109ec565b820191906000526020600020905b8154815290600101906020018083116109cf57829003601f168201915b5050505050915080805480602002602001604051908101604052809291908181526020016000905b82821015610ad0578382906000526020600020018054600181600116156101000203166002900480601f016020809104026020016040519081016040528092919081815260200182805460018160011615610100020316600290048015610abc5780601f10610a9157610100808354040283529160200191610abc565b820191906000526020600020905b815481529060010190602001808311610a9f57829003601f168201915b505050505081526020019060010190610a14565b50505050905093509350935093509193509193565b606060006060600360008573ffffffffffffffffffffffffffffffffffffffff1673ffffffffffffffffffffffffffffffffffffffff168152602001908152602001600020600001600360008673ffffffffffffffffffffffffffffffffffffffff1673ffffffffffffffffffffffffffffffffffffffff16815260200190815260200160002060010154600360008773ffffffffffffffffffffffffffffffffffffffff1673ffffffffffffffffffffffffffffffffffffffff168152602001908152602001600020600201828054600181600116156101000203166002900480601f016020809104026020016040519081016040528092919081815260200182805460018160011615610100020316600290048015610c475780601f10610c1c57610100808354040283529160200191610c47565b820191906000526020600020905b815481529060010190602001808311610c2a57829003601f168201915b50505050509250808054600181600116156101000203166002900480601f016020809104026020016040519081016040528092919081815260200182805460018160011615610100020316600290048015610ce35780601f10610cb857610100808354040283529160200191610ce3565b820191906000526020600020905b815481529060010190602001808311610cc657829003601f168201915b505050505090509250925092509193909250565b6060600260008373ffffffffffffffffffffffffffffffffffffffff1673ffffffffffffffffffffffffffffffffffffffff168152602001908152602001600020600401805480602002602001604051908101604052809291908181526020016000905b82821015610e17578382906000526020600020018054600181600116156101000203166002900480601f016020809104026020016040519081016040528092919081815260200182805460018160011615610100020316600290048015610e035780601f10610dd857610100808354040283529160200191610e03565b820191906000526020600020905b815481529060010190602001808311610de657829003601f168201915b505050505081526020019060010190610d5b565b505050509050919050565b600081815481101515610e3157fe5b906000526020600020016000915054906101000a900473ffffffffffffffffffffffffffffffffffffffff1681565b6001600360008373ffffffffffffffffffffffffffffffffffffffff1673ffffffffffffffffffffffffffffffffffffffff1681526020019081526020016000206003013390806001815401808255809150509060018203906000526020600020016000909192909190916101000a81548173ffffffffffffffffffffffffffffffffffffffff021916908373ffffffffffffffffffffffffffffffffffffffff16021790555050506001600260003373ffffffffffffffffffffffffffffffffffffffff1673ffffffffffffffffffffffffffffffffffffffff1681526020019081526020016000206003018290806001815401808255809150509060018203906000526020600020016000909192909190916101000a81548173ffffffffffffffffffffffffffffffffffffffff021916908373ffffffffffffffffffffffffffffffffffffffff160217905550505050565b6060600180548060200260200160405190810160405280929190818152602001828054801561103957602002820191906000526020600020905b8160009054906101000a900473ffffffffffffffffffffffffffffffffffffffff1673ffffffffffffffffffffffffffffffffffffffff1681526020019060010190808311610fef575b5050505050905090565b6001600260003373ffffffffffffffffffffffffffffffffffffffff1673ffffffffffffffffffffffffffffffffffffffff1681526020019081526020016000206004018290806001815401808255809150509060018203906000526020600020016000909192909190915090805190602001906110c2929190611a2f565b50505050565b6060600360008373ffffffffffffffffffffffffffffffffffffffff1673ffffffffffffffffffffffffffffffffffffffff16815260200190815260200160002060030180548060200260200160405190810160405280929190818152602001828054801561118c57602002820191906000526020600020905b8160009054906101000a900473ffffffffffffffffffffffffffffffffffffffff1673ffffffffffffffffffffffffffffffffffffffff1681526020019060010190808311611142575b50505050509050919050565b6060600080548060200260200160405190810160405280929190818152602001828054801561121c57602002820191906000526020600020905b8160009054906101000a900473ffffffffffffffffffffffffffffffffffffffff1673ffffffffffffffffffffffffffffffffffffffff16815260200190600101908083116111d2575b5050505050905090565b600033905060008314156113975784600260008373ffffffffffffffffffffffffffffffffffffffff1673ffffffffffffffffffffffffffffffffffffffff168152602001908152602001600020600001908051906020019061128a929190611a2f565b5083600260008373ffffffffffffffffffffffffffffffffffffffff1673ffffffffffffffffffffffffffffffffffffffff1681526020019081526020016000206001018190555081600260008373ffffffffffffffffffffffffffffffffffffffff1673ffffffffffffffffffffffffffffffffffffffff1681526020019081526020016000206002019080519060200190611328929190611a2f565b50600160008290806001815401808255809150509060018203906000526020600020016000909192909190916101000a81548173ffffffffffffffffffffffffffffffffffffffff021916908373ffffffffffffffffffffffffffffffffffffffff1602179055505050611508565b60018314156115025784600360008373ffffffffffffffffffffffffffffffffffffffff1673ffffffffffffffffffffffffffffffffffffffff16815260200190815260200160002060000190805190602001906113f6929190611a2f565b5083600360008373ffffffffffffffffffffffffffffffffffffffff1673ffffffffffffffffffffffffffffffffffffffff1681526020019081526020016000206001018190555081600360008373ffffffffffffffffffffffffffffffffffffffff1673ffffffffffffffffffffffffffffffffffffffff1681526020019081526020016000206002019080519060200190611494929190611a2f565b506001808290806001815401808255809150509060018203906000526020600020016000909192909190916101000a81548173ffffffffffffffffffffffffffffffffffffffff021916908373ffffffffffffffffffffffffffffffffffffffff1602179055505050611507565b600080fd5b5b5050505050565b61155a600260008473ffffffffffffffffffffffffffffffffffffffff1673ffffffffffffffffffffffffffffffffffffffff1681526020019081526020016000206004018261174f565b505050565b6000806000806000925060009150600090505b85805490508110156115ff578473ffffffffffffffffffffffffffffffffffffffff1686828154811015156115a357fe5b9060005260206000200160009054906101000a900473ffffffffffffffffffffffffffffffffffffffff1673ffffffffffffffffffffffffffffffffffffffff1614156115f257600192508091505b8080600101915050611572565b82151561160b57600080fd5b60018680549050141561165857858281548110151561162657fe5b9060005260206000200160006101000a81549073ffffffffffffffffffffffffffffffffffffffff0219169055611731565b85600187805490500381548110151561166d57fe5b9060005260206000200160009054906101000a900473ffffffffffffffffffffffffffffffffffffffff1686838154811015156116a657fe5b9060005260206000200160006101000a81548173ffffffffffffffffffffffffffffffffffffffff021916908373ffffffffffffffffffffffffffffffffffffffff16021790555085600187805490500381548110151561170357fe5b9060005260206000200160006101000a81549073ffffffffffffffffffffffffffffffffffffffff02191690555b858054809190600190036117459190611aaf565b5050505092915050565b6000806000806000925060009150600090505b858054905081101561194c57846040516020018082805190602001908083835b6020831015156117a75780518252602082019150602081019050602083039250611782565b6001836020036101000a0380198251168184511680821785525050505050509050019150506040516020818303038152906040526040518082805190602001908083835b60208310151561181057805182526020820191506020810190506020830392506117eb565b6001836020036101000a038019825116818451168082178552505050505050905001915050604051809103902060001916868281548110151561184f57fe5b9060005260206000200160405160200180828054600181600116156101000203166002900480156118b75780601f106118955761010080835404028352918201916118b7565b820191906000526020600020905b8154815290600101906020018083116118a3575b50509150506040516020818303038152906040526040518082805190602001908083835b60208310151561190057805182526020820191506020810190506020830392506118db565b6001836020036101000a038019825116818451168082178552505050505050905001915050604051809103902060001916141561193f57600192508091505b8080600101915050611762565b82151561195857600080fd5b60018680549050141561198e57858281548110151561197357fe5b9060005260206000200160006119899190611adb565b611a11565b8560018780549050038154811015156119a357fe5b9060005260206000200186838154811015156119bb57fe5b9060005260206000200190805460018160011615610100020316600290046119e4929190611b23565b508560018780549050038154811015156119fa57fe5b906000526020600020016000611a109190611adb565b5b85805480919060019003611a259190611baa565b5050505092915050565b828054600181600116156101000203166002900490600052602060002090601f016020900481019282601f10611a7057805160ff1916838001178555611a9e565b82800160010185558215611a9e579182015b82811115611a9d578251825591602001919060010190611a82565b5b509050611aab9190611bd6565b5090565b815481835581811115611ad657818360005260206000209182019101611ad59190611bd6565b5b505050565b50805460018160011615610100020316600290046000825580601f10611b015750611b20565b601f016020900490600052602060002090810190611b1f9190611bd6565b5b50565b828054600181600116156101000203166002900490600052602060002090601f016020900481019282601f10611b5c5780548555611b99565b82800160010185558215611b9957600052602060002091601f016020900482015b82811115611b98578254825591600101919060010190611b7d565b5b509050611ba69190611bd6565b5090565b815481835581811115611bd157818360005260206000209182019101611bd09190611bfb565b5b505050565b611bf891905b80821115611bf4576000816000905550600101611bdc565b5090565b90565b611c2491905b80821115611c205760008181611c179190611adb565b50600101611c01565b5090565b90565b6000611c3382356121c6565b905092915050565b600082601f8301121515611c4e57600080fd5b8135611c61611c5c82612110565b6120e3565b91508082526020830160208301858383011115611c7d57600080fd5b611c888382846121f0565b50505092915050565b6000611c9d82356121e6565b905092915050565b600060208284031215611cb757600080fd5b6000611cc584828501611c27565b91505092915050565b60008060408385031215611ce157600080fd5b6000611cef85828601611c27565b9250506020611d0085828601611c27565b9150509250929050565b60008060408385031215611d1d57600080fd5b6000611d2b85828601611c27565b925050602083013567ffffffffffffffff811115611d4857600080fd5b611d5485828601611c3b565b9150509250929050565b600060208284031215611d7057600080fd5b600082013567ffffffffffffffff811115611d8a57600080fd5b611d9684828501611c3b565b91505092915050565b60008060008060808587031215611db557600080fd5b600085013567ffffffffffffffff811115611dcf57600080fd5b611ddb87828801611c3b565b9450506020611dec87828801611c91565b9350506040611dfd87828801611c91565b925050606085013567ffffffffffffffff811115611e1a57600080fd5b611e2687828801611c3b565b91505092959194509250565b600060208284031215611e4457600080fd5b6000611e5284828501611c91565b91505092915050565b611e648161219c565b82525050565b6000611e7582612156565b808452602084019350611e878361213c565b60005b82811015611eb957611e9d868351611e5b565b611ea682612182565b9150602086019550600181019050611e8a565b50849250505092915050565b6000611ed082612161565b80845260208401935083602082028501611ee985612149565b60005b84811015611f22578383038852611f04838351611f69565b9250611f0f8261218f565b9150602088019750600181019050611eec565b508196508694505050505092915050565b6000611f3e82612177565b808452611f528160208601602086016121ff565b611f5b81612232565b602085010191505092915050565b6000611f748261216c565b808452611f888160208601602086016121ff565b611f9181612232565b602085010191505092915050565b611fa8816121bc565b82525050565b6000602082019050611fc36000830184611e5b565b92915050565b60006020820190508181036000830152611fe38184611e6a565b905092915050565b600060208201905081810360008301526120058184611ec5565b905092915050565b600060408201905081810360008301526120278185611f33565b9050818103602083015261203b8184611f33565b90509392505050565b6000606082019050818103600083015261205e8186611f33565b905061206d6020830185611f9f565b818103604083015261207f8184611f33565b9050949350505050565b600060808201905081810360008301526120a38187611f33565b90506120b26020830186611f9f565b81810360408301526120c48185611f33565b905081810360608301526120d88184611ec5565b905095945050505050565b6000604051905081810181811067ffffffffffffffff8211171561210657600080fd5b8060405250919050565b600067ffffffffffffffff82111561212757600080fd5b601f19601f8301169050602081019050919050565b6000602082019050919050565b6000602082019050919050565b600081519050919050565b600081519050919050565b600081519050919050565b600081519050919050565b6000602082019050919050565b6000602082019050919050565b600073ffffffffffffffffffffffffffffffffffffffff82169050919050565b6000819050919050565b600073ffffffffffffffffffffffffffffffffffffffff82169050919050565b6000819050919050565b82818337600083830152505050565b60005b8381101561221d578082015181840152602081019050612202565b8381111561222c576000848401525b50505050565b6000601f19601f83011690509190505600a265627a7a72305820743b2f063cc20ac5cd7102338598c8ab2843ab21b8a1c3e9cef732a0d08053996c6578706572696d656e74616cf50037",
  "source": "pragma experimental ABIEncoderV2;\r\npragma solidity >=0.4.22 <0.9.0;\r\n\r\ncontract Role {\r\n    struct patient {\r\n        string name;\r\n        uint age;\r\n        string password;\r\n        address[] doctorAccessList;\r\n        string[] patientRecordList;\r\n    }\r\n\r\n    struct doctor {\r\n        string name;\r\n        uint age;\r\n        string password;\r\n        address[] patientAccessList;\r\n    }\r\n\r\n    address[] public patientList;\r\n    address[] public doctorList;\r\n\r\n    mapping (address => patient) patientInfo;\r\n    mapping (address => doctor) doctorInfo;\r\n\r\n    function add_agent(string _name, uint _age, uint _designation, string _password) public {\r\n        address addr = msg.sender;\r\n\r\n        if(_designation == 0){\r\n            patientInfo[addr].name = _name;\r\n            patientInfo[addr].age = _age;\r\n            patientInfo[addr].password = _password;\r\n            patientList.push(addr)-1;\r\n        }\r\n       else if (_designation == 1){\r\n            doctorInfo[addr].name = _name;\r\n            doctorInfo[addr].age = _age;\r\n            doctorInfo[addr].password = _password;\r\n            doctorList.push(addr)-1;\r\n\r\n       }\r\n       else{\r\n           revert();\r\n       }\r\n    }\r\n\r\n    function get_patient(address addr) view public returns (string, uint, string, string[]){\r\n\r\n        return (patientInfo[addr].name, patientInfo[addr].age, patientInfo[addr].password, patientInfo[addr].patientRecordList);\r\n    }\r\n\r\n    function get_doctor(address addr) view public returns (string, uint, string){\r\n\r\n        return (doctorInfo[addr].name, doctorInfo[addr].age, doctorInfo[addr].password);\r\n    }\r\n    function get_patient_doctor_name(address paddr, address daddr) view public returns (string, string){\r\n        return (patientInfo[paddr].name,doctorInfo[daddr].name);\r\n    }\r\n\r\n\r\n    function permit_access(address addr) public {\r\n\r\n        doctorInfo[addr].patientAccessList.push(msg.sender)-1;\r\n        patientInfo[msg.sender].doctorAccessList.push(addr)-1;\r\n\r\n\r\n    }\r\n\r\n    function remove_element_in_array(address[] storage Array, address addr) internal returns(uint)\r\n    {\r\n        bool check = false;\r\n        uint del_index = 0;\r\n        for(uint i = 0; i<Array.length; i++){\r\n            if(Array[i] == addr){\r\n                check = true;\r\n                del_index = i;\r\n            }\r\n        }\r\n        if(!check) revert();\r\n        else{\r\n            if(Array.length == 1){\r\n                delete Array[del_index];\r\n            }\r\n            else {\r\n                Array[del_index] = Array[Array.length - 1];\r\n                delete Array[Array.length - 1];\r\n\r\n            }\r\n            Array.length--;\r\n        }\r\n    }\r\n    function remove_element_in_records(string[] storage Array, string rhash) internal returns(uint)\r\n    {\r\n        bool check = false;\r\n        uint del_index = 0;\r\n        for(uint i = 0; i<Array.length; i++){\r\n            if(keccak256(abi.encodePacked(Array[i])) == keccak256(abi.encodePacked(rhash))){\r\n                check = true;\r\n                del_index = i;\r\n            }\r\n        }\r\n        if(!check) revert();\r\n        else{\r\n            if(Array.length == 1){\r\n                delete Array[del_index];\r\n            }\r\n            else {\r\n                Array[del_index] = Array[Array.length - 1];\r\n                delete Array[Array.length - 1];\r\n\r\n            }\r\n            Array.length--;\r\n        }\r\n    }\r\n\r\n    function remove_patient(address paddr, address daddr) public {\r\n        remove_element_in_array(doctorInfo[daddr].patientAccessList, paddr);\r\n        remove_element_in_array(patientInfo[paddr].doctorAccessList, daddr);\r\n    }\r\n\r\n    function get_accessed_doctorlist_for_patient(address addr) public view returns (address[])\r\n    {\r\n        address[] storage doctoraddr = patientInfo[addr].doctorAccessList;\r\n        return doctoraddr;\r\n    }\r\n    function get_accessed_patientlist_for_doctor(address addr) public view returns (address[])\r\n    {\r\n        return doctorInfo[addr].patientAccessList;\r\n    }\r\n\r\n\r\n    function revoke_access(address daddr) public{\r\n        remove_patient(msg.sender,daddr);\r\n\r\n    }\r\n\r\n    function get_patient_list() public view returns(address[]){\r\n        return patientList;\r\n    }\r\n\r\n    function get_doctor_list() public view returns(address[]){\r\n        return doctorList;\r\n    }\r\n\r\n    function get_hash(address paddr) public view returns(string[]){\r\n        return patientInfo[paddr].patientRecordList;\r\n    }\r\n\r\n    function push_hash(string _hash) public {\r\n        patientInfo[msg.sender].patientRecordList.push(_hash)-1;\r\n    }\r\n\r\n    function delete_hash(address paddr, string rhash) public {\r\n      remove_element_in_records(patientInfo[paddr].patientRecordList, rhash);\r\n    }\r\n}\r\n",
  "sourcePath": "D:\\Projects\\HealthBlock\\contracts\\Role.sol",
  "compiler": {
    "name": "solc",
    "version": "0.4.24+commit.e67f0147.Emscripten.clang"
  },
  "schemaVersion": "3.4.3",
  "updatedAt": "2021-08-14T17:14:37.882Z",
  "networkType": "ethereum",
  "devdoc": {
    "methods": {}
  },
  "userdoc": {
    "methods": {}
  }
}